:100000000C94BC000C94D9000C94D9000C94D90029
:100010000C94D9000C94D9000C94D9000C94D900FC
:100020000C94D9000C94D9000C94D9000C94D900EC
:100030000C94D9000C94D9000C94D9000C94D900DC
:100040000C94D9000C94D9000C94D9000C94D900CC
:100050000C9461010C94D9000C94D9000C94D90033
:100060000C94D9000C94D9000C94D9000C94D900AC
:100070000C94D9000C94D9000C94D9000C94D9009C
:100080000C94D9000C94D9000C94D9000C94D9008C
:100090000C94D9000C94D9000C94D9000C94D9007C
:1000A0000C94D9000C94D9000C94D9000C94D9006C
:1000B0000C94D9000C94D9000C94D9000C94D9005C
:1000C0000C94D9000C94D9000C94D9000C94D9004C
:1000D0000C94D9000C94D9000C94D9000C94D9003C
:1000E0000C94D9000C94D9000C9432010C94D900D2
:1000F0000C94D9000C94D9000C94D9000C94D9001C
:100100000C94D9000C94D9000C94D9000C94D9000B
:100110000C94D9000C94D9000C94D9000C94D900FB
:100120000C94D9000C94D9000C94D9000C94D900EB
:100130000C94D9000C94D9000C94D9000C94D900DB
:100140000C94D9000C94D9000C94D9000C94D900CB
:100150000C94D9000C94D9000C94D9000C94D900BB
:100160000C94D9000C94D9000C94D9000C94D900AB
:100170000C94D9000C94D90011241FBECFEFCDBF31
:10018000DFE2DEBF10E2A0E0B0E2E8EBFAE002C09E
:1001900005900D92A633B107D9F720E2A6E3B0E2AD
:1001A00001C01D92AB3AB207E1F70E940C020C9419
:1001B0005A050C9400009091A10A95FFFCCF809302
:1001C000A00A0895E0E8F6E088E0818384E0828375
:1001D000E0EAFAE083E085838FEC868317828481EE
:1001E0008061848384818860848383818061838348
:1001F00080E090E28093A7209093A82008954091FA
:100200003A2050913B2020913C2030913D2081E0CC
:100210004217530709F480E00895811119C0E09155
:100220003C20F0913D20E25CFF4D808120913C20FC
:1002300030913D202F5F3F4F20933C2030933D2055
:1002400020913C2030913D202436310530F4089532
:100250000E94FF008823E1F3E2CF10923C2010922D
:100260003D2008951F920F920FB60F9211248F9385
:100270009F93EF93FF93E0913A20F0913B20809180
:10028000A00AE25CFF4D808380913A2090913B2050
:10029000019680933A2090933B2080913A20909150
:1002A0003B208436910520F010923A2010923B209A
:1002B000FF91EF919F918F910F900FBE0F901F9024
:1002C00018951F920F920FB60F9211242F933F9300
:1002D0004F935F936F937F938F939F93AF93BF934E
:1002E000EF93FF938091A2208823A1F18091372082
:1002F00090913820019680933720909338208091F8
:10030000372090913820C39728F11092372010920F
:1003100038208091280890912908833C914050F022
:10032000809128089091290801978093280890933C
:10033000290810C08EE090E29F938F930E949D0247
:100340001092A2208EEE92E08093280890932908C4
:100350000F900F90FF91EF91BF91AF919F918F916F
:100360007F916F915F914F913F912F910F900FBEB1
:100370000F901F901895E0EAF0E0828181608283FF
:100380007894089590E89093460690E190934606FD
:1003900091E09093C3089091C20897FFFCCF80939F
:1003A000C3088091C20887FFFCCF8091C3088F707B
:1003B00090E01092C3082091C20827FFFCCF209143
:1003C000C30830E130934506982F8827820F911D8E
:1003D00008950F93CF93DF931F92CDB7DEB72FB75A
:1003E0002983F8941BBEFC0108ED04BF608389815A
:1003F0008FBF0F90DF91CF910F91089580915000A2
:100400008260809350008091510081FFFCCF61E0B9
:1004100080E490E00C94E9010E94FE010E94E20059
:1004200087E190E29F938F930E949D0281E390E089
:10043000809366089093670825E02093400881E048
:10044000809346088093280298E090932902909127
:100450000402987F9260909304021092020210921C
:100460000302109201028093000280934106809360
:1004700046062093000883E18093010880E197E21B
:1004800080932608909327088EEE92E080932808A8
:100490009093290880EB8093410680E18093450684
:1004A00083E58093C00883E08093610680936606AD
:1004B0002FEF8FE493EC215080409040E1F700C093
:1004C00000000E94BB010F900F9002E011E0C5E216
:1004D000D0E22FEF89EF90E0215080409040E1F78B
:1004E00000C000000E94FF00882399F380E00E9472
:1004F0000D0180933920833691F038F4833461F014
:10050000853539F710936506E4CF833759F0853781
:1005100001F710936606DDCF00936506DACF0093EE
:100520006606D7CF109236201093A220DF93CF9388
:100530000E949D020F900F90CCCFA0E0B0E0E3EAC4
:10054000F2E00C943905FE01359661917191AF018D
:100550008091A7209091A8200E94B102E2E00C9423
:100560005205ACE0B0E0E7EBF2E00C9429057C0129
:100570006B018A01FC0116821782838181FFBDC154
:10058000CE0101964C01F7019381F60193FD85910F
:1005900093FF81916F01882309F4ABC1853239F44F
:1005A00093FD859193FF81916F01853229F4B70105
:1005B00090E00E949904E7CF512C312C20E02032AA
:1005C000A0F48B3269F030F4803259F0833269F450
:1005D00020612CC08D3239F0803339F4216026C07F
:1005E0002260246023C0286021C027FD27C030ED91
:1005F000380F3A3078F426FF06C0FAE05F9E300DDF
:100600001124532E13C08AE0389E300D1124332E4E
:1006100020620CC08E3221F426FD6BC1206406C01E
:100620008C3611F4206802C0883641F4F60193FD3F
:10063000859193FF81916F018111C1CF982F9F7D8B
:100640009554933028F40C5F1F4FFFE3F9830DC0DE
:10065000833631F0833771F0833509F05BC022C0F7
:10066000F801808189830E5F1F4F44244394512CED
:10067000540115C03801F2E06F0E711CF801A08022
:10068000B18026FF03C0652D70E002C06FEF7FEFE1
:10069000C5012C870E948E042C0183012C852F77A5
:1006A000222E17C03801F2E06F0E711CF801A080F5
:1006B000B18026FF03C0652D70E002C06FEF7FEFB1
:1006C000C5012C870E9483042C012C852068222ED2
:1006D000830123FC1BC0832D90E048165906B0F41B
:1006E000B70180E290E00E9499043A94F4CFF501BA
:1006F00027FC859127FE81915F01B70190E00E9460
:10070000990431103A94F1E04F1A51084114510400
:1007100071F7E5C0843611F0893639F5F80127FF05
:1007200007C060817181828193810C5F1F4F08C077
:1007300060817181882777FD8095982F0E5F1F4F0C
:100740002F76B22E97FF09C0909580957095619590
:100750007F4F8F4F9F4F2068B22E2AE030E0A401D8
:100760000E94CB04A82EA81844C0853729F42F7EF8
:10077000B22E2AE030E025C0F22FF97FBF2E8F364F
:10078000C1F018F4883579F0B4C0803719F0883793
:1007900021F0AFC02F2F2061B22EB4FE0DC08B2DE3
:1007A0008460B82E09C024FF0AC09F2F9660B92E1E
:1007B00006C028E030E005C020E130E002C020E1C2
:1007C00032E0F801B7FE07C06081718182819381B8
:1007D0000C5F1F4F06C06081718180E090E00E5F6A
:1007E0001F4FA4010E94CB04A82EA818FB2DFF7751
:1007F000BF2EB6FE0BC02B2D2E7FA51450F4B4FED9
:100800000AC0B2FC08C02B2D2E7E05C07A2C2B2DE1
:1008100003C07A2C01C0752C24FF0DC0FE01EA0D27
:10082000F11D8081803311F4297E09C022FF06C0AA
:100830007394739404C0822F867809F0739423FD17
:1008400013C020FF06C05A2C731418F4530C571809
:10085000732C731468F4B70180E290E02C870E9437
:10086000990473942C85F5CF731410F4371801C0D4
:10087000312C24FF12C0B70180E390E02C870E9446
:1008800099042C8522FF17C021FF03C088E590E062
:1008900002C088E790E0B7010CC0822F867859F03B
:1008A00021FD02C080E201C08BE227FD8DE2B7018D
:1008B00090E00E949904A51438F4B70180E390E019
:1008C0000E9499045A94F7CFAA94F401EA0DF11DFD
:1008D0008081B70190E00E949904A110F5CF3320E8
:1008E00009F451CEB70180E290E00E9499043A9455
:1008F000F6CFF7018681978102C08FEF9FEF2C968C
:10090000E2E10C944205FC01059061507040011039
:10091000D8F7809590958E0F9F1F0895FC01615028
:10092000704001900110D8F7809590958E0F9F1F11
:1009300008950F931F93CF93DF93182F092FEB0187
:100940008B8181FD03C08FEF9FEF20C082FF10C01D
:100950004E815F812C813D81421753077CF4E881F1
:10096000F9819F012F5F3F4F28833983108306C091
:10097000E885F985812F0995892B29F72E813F81FB
:100980002F5F3F4F2E833F83812F902FDF91CF9199
:100990001F910F910895FA01AA27283051F12031B3
:1009A00081F1E8946F936E7F6E5F7F4F8F4F9F4F03
:1009B000AF4FB1E03ED0B4E03CD0670F781F891F45
:1009C0009A1FA11D680F791F8A1F911DA11D6A0F13
:1009D000711D811D911DA11D20D009F468943F91C6
:1009E0002AE0269F11243019305D3193DEF6CF01C5
:1009F0000895462F4770405D4193B3E00FD0C9F78B
:100A0000F6CF462F4F70405D4A3318F0495D31FDF7
:100A10004052419302D0A9F7EACFB4E0A69597954A
:100A2000879577956795BA95C9F700976105710520
:100A300008959B01AC010A2E06945795479537956A
:100A40002795BA95C9F7620F731F841F951FA01DC4
:100A500008952F923F924F925F926F927F928F9262
:100A60009F92AF92BF92CF92DF92EF92FF920F933D
:100A70001F93CF93DF93CDB7DEB7CA1BDB0BCDBF80
:100A8000DEBF09942A88398848885F846E847D8413
:100A90008C849B84AA84B984C884DF80EE80FD8026
:100AA0000C811B81AA81B981CE0FD11DCDBFDEBFC4
:080AB000ED010895F894FFCF59
:100AB8000000000200000000DB00000000004849C0
:100AC8005420454E440D005374617274696E67205A
:100AD8007570210D007072657373696E6720627599
:060AE80074746F6E0D0036
:00000001FF
